:1000000000000000000000000000000000000000F0
:1000100000000000000000000000000000000000E0
:100020000000000000000000000000003C383333F6
:10003000333932050505050504373435340B0B0417
:100040000404060100003F3E3C00000000000000E8
:1000500000000000000000000000000000000000A0
:100060000000000000000000000000000000000090
:100070000000000000000000000000000000000080
:100080002434343A30302A30303C2A30302A3A3066
:100090003C2A303C2A3432323A0B320B1F0B1818F0
:1000A000322F322F250D322C322F24242505250600
:1000B000322F2424320F323E0B0B322F322C2424C9
:1000C00025083C2B25083E2B321F0F323C2B322FAC
:1000D00024240B322F2B24242B2424322C2C0000FC
:1000E0000000000000000000000000000000000010
:1000F000323C003D3224000032071013013F2A0138
:10010000323A0B32322C3A0B322F18322F083E2A59
:100110000B322F08180C0B3E2A3A083D2A180818F3
:100120002A3A1C322F0B322F322F2A003A322F0E4E
:10013000322F2C3A0C0B3D2B0B3C0B0B3C0B0B3C8E
:100140000B0B2B0B3D0B0B180832322C3A08093ED7
:100150002B0832322C322C3E2D32322C3A08093EFA
:100160002D323A0818320000000000013F3F003FE6
:100170003F3F00013E323202383F361B363A000123
:10018000001A0E1A0A38323A0B323A0A322E00009E
:10019000322C3E2A322C322F322C3A083C3B1808A3
:1001A000180C3E1832322F322C083C2A0B3D2A0BF9
:1001B0003D2A0B1832251D322F322C083C2B0B3DCB
:1001C0002A0B3D2A0B1832322C24220B322F2423E7
:1001D0000F322C320F32322C2423322C24232C3297
:1001E0002C0B18320C323C32322F322C2B000000F8
:1001F000000000003224023302003F033C3F36027D
:100200003A3C3A18322C3C2A0803180803091832E1
:100210002F322C322C322C3C2A322C08013E2A322E
:100220002C2A322F322C322C322C3C320B3E2D2AEF
:10023000322F322C2C3A3C3A18322F322F322C08E3
:10024000322C322C322C3C320B3E2D2A322C3E2FBB
:10025000322C322F322C0B322F2C322F322F322CC9
:10026000322C0B2F000000000000000000000000F6
:10027000000000001D05361D360A05343F08343FD6
:1002800008183208183208183208033C08033D18D1
:10029000320832323A322A322A322A322A322A2A90
:1002A000322A2C00180E322F082C08222008222077
:1002B0000822200822200822200822210822213E8C
:1002C00022203A08010B1B00323A32083E32323209
:1002D0002B322B0C180832323218322B322B081CDE
:1002E0003232321B0B322B322B380B3E32241D3272
:1002F0002F0B322C322C322C2C00003432320D32A7
:10030000322C3C2D322F322C18322F322C322C3EF4
:100310003A18322C322F08322C322C3C2A102A3236
:10032000251E322C3C2D322C181808393C38183236
:100330002C0818322C3C2A322C2A083E2A322F2430
:100340001D082C322C082B322C3A1818183A180990
:100350001818322C3E2B322C322C322C08322C32F4
:100360002C3C32322C2B000000000000000000006A
:1003700000000000000000000000000000383534DC
:10038000322C081A18183A1809183A1A18083E2A6E
:10039000322C083E2A322C081A322C180A02381A3B
:1003A000322F322C020A3E2A322F322C3A18322CAB
:1003B0003C2A322C2A083E32251E0000322C322BD9
:1003C000180C180C18083E2B322F322C10102B084A
:1003D0003E3225203A0B180B180B180B1818323226
:1003E0002B0C3C2B38083E2B0C38083E2B39321096
:1003F000102B39320000000000003F020202083CCE
:10040000322C3E2A322C322F083C2D18322F3C2A17
:1004100008181C322520322F1C1C1C102A32322FA7
:10042000083C2D18322C322F3E2A2520322F100C5A
:100430003E2A102A25200818081C0818081C3232E9
:100440002F0C3C2B180C18322C1C0B322C2B1010A0
:10045000102B32322F0C3C2B180C180C322C2B107A
:1004600010102B32322C080118081818322C1832B0
:100470002F322F2F00000000000A0A12320F0F380F
:10048000322C303C3A182A322C322A2A322C322F83
:1004900018303032193408320832083C083008303D
:1004A0002C322C3E2A322C322F322C322B081808B8
:1004B000393908182A322B2A322C322B302A30258F
:1004C00008250D323A18181818183A1832322C0824
:1004D0001B18083E2B322C322C0B0B3F2B251D18E2
:1004E00008381018083E2B241E2420082C00000079
:1004F00000000000000000000000000000103810A4
:100500000B183A18390C3C3238320C0132393E3271
:100510002A0101010100322C3E2A322C322F322CCA
:100520000B322F3C2A322F0B182F322A3C2A322B27
:100530003C2A251E2503322A3C322422322C393211
:100540002509322A3C322422322C3932322C322CE8
:100550002421081808322C322F3E2C0832251D3257
:100560000F323E32251F0000000000000000000096
:10057000000000000000000038120013361D361481
:10058000322C3E2A322C322C08033E2A0818322CF8
:100590003E2A322C322C322C080B1832081C3232F4
:1005A000251D18322A10080B3E2A32242208322F29
:1005B0002422080B18320C322C2421321D1D08393C
:1005C000180B1832081C08381C102B32251008256F
:1005D000003C2F3A103C32321515320838003E2AC2
:1005E000322F2A0000000000000000000000000080
:1005F00000000000000000000000381D3B39003FF3
:100600002421321D1D3225100825003C2F083918E1
:100610000B183208380C3E2A0C08383E2A102A32B1
:10062000103C32321515320838003E2A322F2A3259
:10063000322C2421320D32322C2A322F322F321F0B
:10064000320918180B1F322F180B1A322A24212CAA
:10065000322F321F3225063E2F0918320F18320B67
:100660001F322F320F18320B1A322A2B00000000D3
:100670000004040015000A16170A001515383B1D62
:10068000322C180B18322B0B3E2A102A322B0B3C23
:100690002A0B18180B18183E08033E2B081B322B88
:1006A0001B0B03383C0B033D18322B18080B3E2B59
:1006B000080B0B180B033E2A08322C10382A081896
:1006C0002A08033E2B080118322B182A083808186C
:1006D000322F2A00003A0B18302B3A3032383C2B9C
:1006E000102B3B322C2C000000000000000000000A
:1006F0000000000000000000003C0C0100023E3F32
:100700000B1A09182A322F0B1A0918322C32081F1B
:10071000081F1D1D3218322C3E2A322C322C320872
:100720001D081D323A18322C3E2A322C322C083841
:1007300018322C25100825003C2B08322F321515B5
:1007400032102A323218241E08322C2C0B1B0918A6
:100750002B322F0B1B0918322C322C32081F081F8A
:100760003208322F321D0D1D3225100825003C2B7A
:100770002B0000000000001E0A041E00000A1504E1
:100780001A180B1818320D32322C322F08322F3231
:100790002F322C320C321808081808322C1008019D
:1007A0003E2A322C080A3E2A082C001A0B18183A46
:1007B0001B180B322F080A3E2B322C08380B3E2B0D
:1007C000132D081B080B3E2D322C0838083E2D082F
:1007D0000B3E2D322C08321C080818321008013E3E
:1007E0002B322C3E2D2A322C0838083E2B083E2D69
:1007F0000B32251E000000003F3F3A003833383BE3
:10080000322C0818322F322C0818322C24220832AD
:100810002C322F3E2C2422321D32251008321F325A
:1008200009250A3C2F251008321F3209250A3C2FC2
:1008300032173C2A093807323E2A322F2A32242125
:100840002C0000000000000000000000000000007C
:100850000000000000000000000000000000000098
:100860000000000000000000000000000000000088
:100870000000000000000000000038001D003805E6
:100880000000000000000000000000000000000068
:100890000000000000000000000000000000000058
:1008A0000000000000000000000000000000000048
:1008B0000000000000000000000000000000000038
:100C80000B183B1832102A3B183B08180C01383956
:100C90003C0C0138393D2A0C01323C32322C2A00FE
:100CA0003A0E322A122E180C3C32322C2A18320CF0
:100CB000323C32322C2A180838322A08030B2F18FB
:100CC0001808390B3C2B102B0B323A083C2B322ADC
:100CD000322F180B18083938180838180801322F25
:100CE000102B3238183B2B322B2C322B2C000000CF
:100CF00000000000000000003F39003F3C00003FC2
:100D00003A08322F08322C322F2C3838012F322F4C
:100D1000081832322A0818081832322A0818081817
:100D200032322A322C0B3E2A322A08180818322B6B
:100D3000383E32251E0818081839323B1032080B8D
:100D40003D380B0118323B0838083E320838083A63
:100D5000323A083C08183D18083C08183D18320083
:100D60000000000000000000000000000000000083
:100D7000000000000000000000013F3F3839383417
:100D80003A18322C3C32322A3C2D093818322C3297
:100D90002A3C2C09081832390B3D2A0B320B3D38FE
:100DA0000B3218320C3C2A38083E2A102A0C1A3210
:100DB0002E003A1818322C0B3D2B0B3F2B083918FC
:100DC00008393908080B1810322C2A3A083E2D32FF
:100DD0003A1818322C0B3D2B0B3F2B0818083838CB
:100DE00003080B1810322C2B3A083E2D320000005D
:100DF00000000000000000003F3F3F3F013F013E78
:100E00003A08012A3A08380118322C3A080B3F32C6
:100E10000838011832322F322F3C2A1808322C326F
:100E20002C080B3C2A0B3C2A3B323B32322A08016D
:100E30003E2A323A0B2F3A0B2F3A0B2F3A0B2F3A0E
:100E40000B2F0B2F3A0B322F181038083C2B380879
:100E50003F2B18322F3A180B2F3A083D2B180B3224
:100E60002F3A3200000000000000000000000000E7
:100E70000038000000003C00003C003F3E3C383F92
:100E80001B0B181B18180B322C322F3C2A18181861
:100E90001808093D2A0B3E2B0B0B3F2B08322C0860
:100EA0001C132A0B3C2A1C0B322C322C0B322C0B21
:100EB000322F322C2A0B3C2A0B322C322C2A0B3CA0
:100EC0002B0B3E2A322F322C322F2B0B3C2B0B3C80
:100ED0002B0B3E2A0B322C322C1C0B18320B3E2AC9
:100EE000322C0C322C322C3A0B1B2A322F2A0000C7
:100EF00038003F003F3900003F3200003E3E3C02D8
:100F00003C32093D2A0B3C2A2F0B3C2A0B2A323A51
:100F10000B322A320B2A0B32103A083C2A38083F8F
:100F20002A322C3232322A3A083E2A083E2A322A03
:100F3000323A321A18302A0A303A32102A2A00324B
:100F40002B013C320B3C2B18180B322C2C0B3C2B5E
:100F5000180B322C322C083818320B3C2B3A183232
:100F60000B3C2B1818320B323A3032303200000072
:100F7000000000003F003F003F000101003F38003B
:100F8000322F1832183D18321832180932323218FE
:100F90003430383C2A383C2A383C2A383C2A232032
:100FA000231F3A081808010A1A38320C183232087E
:100FB0000B3C2A0B323C2F32231F231F231F3A08DE
:100FC0003E32231F00322C0F322F0801322F0832FD
:100FD0002C322F322F2C00000000000000000000F7
:100FE0000000000000000000000000000000000001
:100FF00000000000000000110A343202000D002A37
:1010000000343A093C2834323A091D091D0D0D38C7
:101010003C28081D081D081D081D081D081D3A1D37
:10102000340C341C102832323E2834323A180C105A
:10103000283C2832323E28343A1D321D32152832DF
:10104000213C293209213C29322D00091938180880
:101050001C10291808380C3C2910293209012D00D0
:101060000000000000000000000000000000000080
:101070000000003202000000000000002A00153FBE
:101080001A322A322A1808390B3E2A080B180C1873
:10109000320F32322C321F38183B07081F322F32E2
:1010A0002F3A320F1817380F030B1A38320C32321E
:1010B00032020208050E090E0E103B0B323232329C
:1010C0002F322A18080318322F3E2F322F3E2F08B6
:1010D0003F2B322F2B322F10102B3A323A180B1F86
:1010E0001818182F0000000000000000041004046D
:1010F000040604060010023200003E120000023F07
:10110000322F3C2A322F3C2A2F322F3C2A322F3CBE
:101110002A2F3B323B39323A0B1827340C03180C78
:1011200003180C1834322708383903081C083939D9
:1011300003081C3232102A39323A0B18270C180CCB
:1011400018322734081C081C0803383918080339DA
:1011500039081C3432102A39323A1834340F1B0B38
:10116000381F0B0F033E183432003B0832000000DA
:101170000000000000003F3C1003063F0404060688
:101180003B08083E321808390B3C2A102A0B381845
:101190000839080B18080B3E0B08343B323B080B90
:1011A0003E320839390B1A080B180C381808393E2A
:1011B000383200382E1818322A0B343A22340B1FDA
:1011C0000B1F0F0F38033E2B0B343A1F0B343A0F13
:1011D000033E0B0B34321C0C3C2B3F0B0B0818103E
:1011E000080B3E2A0832000000000000000000004A
:1011F00002061F0103013F0200323F000A3F003F89
:101200001808390B3E32080B180C323A180B3434DC
:101210000B340B383C2A0B340B27012F322F3C3276
:101220000B2701322F3C320B180B180B340B340BED
:101230003434031C34031C0B34102A0B180B3438C1
:10124000380B34102A0F383803180F383838030891
:10125000183B323B08323A180B1F1818180B2F0096
:1012600000000000000000000A10323F3D003D0079
:101270000300013E3B0B030B0F03003F0002003F46
:1012800018322B3C32322A0B2701322B3C32082FEA
:1012900018322B3C32322A0B2701322B3C320832D7
:1012A0002F2B3A0B27012B3A0B27012B3A0827014A
:1012B000083838031B083838030B2701083838274B
:1012C000010B27013A270132000B1B1B2701393C78
:1012D0002B38030B383E32132B132B3B32000027E5
:1012E00001393C2B38030B383E2B322701393200B1
:1012F000003F023F030F3D030003030C000C0F00EF
:10130000180B180B340B34270C1B0B340B38380319
:10131000340B340B34103C2A102A0B340B34102AB3
:1013200032320B343B32180B180B340B34270B348E
:1013300034031B340338390B1C0B34103C2B102A9C
:101340000B340B34102B32323B32003B0B18180895
:101350001C080B3E32102B000000000000000000B3
:10136000000000000000000000000000000000007D
:101370000000003F00000300020000001001023CDA
:1013800018322F1808390B3E32080B18081C32325D
:101390002F18390B083E32080B180C32322F322F1F
:1013A00018083E2A3B3208030B180C18083F0B0B99
:1013B0001B103C2A0B322F3C321038102A320B2FD4
:1013C00000001B0B340F13340B340B340B340B3471
:1013D0002F003A0B340F13340B343834031B0B3407
:1013E0000B2F0000000000000000000000000000C3
:1013F000000003020000023E3C0A3F0010003F02D2
:10140000322F1808030B1A08033C3B383818322FC8
:101410000B1818320B180B1A3B183A183200383ACE
:10142000083E322E322F390B030B1B0B3C0B1B32A9
:101430002F0B18322F390B030B1B0B3C0B1B322FBE
:101440000B18322F381838380C38381C102B323221
:101450003B3200000000000000000000000000001F
:10146000000000000000000000000000000000007C
:10147000000000000000003220323B3F1F3200021B
:10148000000000000000000000000000000000005C
:10149000000000000000000000000000000000004C
:1014A000000000000000000000000000000000003C
:1014B000000000000000000000000000000000002C
:101700002807320625082508240824082509240965
:10171000220C230C370E230D260D220E2210221030
:1017200023123312331230123411360734063406C2
:1017300025132D122C1A241C321C241D321D241892
:1017400032192214301630200004210A300A2D0AE2
:10175000300A330A0004210A300A2D0A300A330AFB
:10176000000436142915000419151D0D0901000087
:101770000018151D091914193D190401000019312B
:1017800019051D181D1501001905192118051D0D34
:1017900000193D09011911010100190519041D1550
:1017A0000101001925010000083D1114193D010037
:1017B0000019151D0D09011D090101000901193D3F
:1017C0001D111D010009011D0D01001C09192D1914
:1017D0002509010901001831191D09010D011C1508
:1017E0001D1119391C1100001C09192D1C110000B4
:1017F000180519311C0909010901001805191519E5
:10180000040100001839193D0901190519040100E6
:101810000019391D0C0101001D11181501001D09C9
:1018200019111D0C01010019090901193101000DDF
:1018300039000D39000D39000D39000D39000D3911
:10184000000D0500000D0900001D091D11183909C2
:101850003D1D091D11193900001925193901000014
:10186000181519191939010000183D010100181542
:1018700019191905193D1914193D0900193D093D9A
:10188000191D01000019151D09191518051925192B
:101890003D0100001D01193901000019250100005A
:1018A0000C3818051925193D0100001035010000FC
:1018B0001011010000110D0C081408090119391943
:1018C0003D1518001821192D193500000C081015A8
:1018D0000D000C080C040C1400001D0119251D112D
:1018E000100C0C040C0C0C0008001905090119352A
:1018F000111C1935093910040901191D1D0D181580
:101900001D09191100001509000000090110081D2A
:10191000111D250000010100112501001115000015
:101920000009010000001D111815190D1911001DE5
:10193000111C15193D1915010025262627272828D1
:10194000252929292A2A2B252B2B2B2C2C252C2DFC
:101950002D2D2E2E2E252F2F2F303030313132319C
:101960003225333333343435352536363637373848
:1019700038393900110511391104090115011125F2
:10198000110C11351111010009001905152D180947
:101990001909152C180C190D0125080019051939FC
:1019A0001934193918151D09010009011905152DDA
:1019B00018091909152C180C190D0125080019050D
:1019C00019391D0019151934193D01010009011DAE
:1019D000090124083410141935191518151D0D1D89
:1019E000090009001905090119090900190D093132
:1019F0000838002508001D01192519241934193942
:101A000018151D0901000901190509011909090025
:101A1000190D09310838002508001D011925192460
:101A20001D0019151934193D010100090109011D95
:101A30002501240C3818151D0D09010901191D1D5A
:101A40001101010011351525103D1105150D000975
:101A5000011905093519090901191101250C381851
:101A60003D090119351D251831192D0009011905E8
:101A70000935190901250834100C190D1D151934E3
:101A8000193D0901193D01010009011D19152C1904
:101A900005093519090901193515350934140C1DC5
:101AA00009090119351D250009011D19152C1905F4
:101AB00009351909153508341018193118151D097B
:101AC000010009011905190518091909012408005F
:101AD0001915090119351D250011151501113911A7
:101AE0000C113511110100090119050125083414E3
:101AF0000C090119151D01193901000901190519F0
:101B00000501240C3818151D1919081905193D1D52
:101B100011000125002408001D0D19081905193DA3
:101B20001D110100012408341400190D19111805A4
:101B3000090119151D0119390100113D1105110C7B
:101B400015111131103D1105150D00090119051967
:101B50000501240C381C111D111805090119351D2A
:101B6000251C091D0901010001240834100C1D1158
:101B70001D151914190D192501010001250024084E
:101B8000001939191518391D091D111939000125B8
:101B90000024080019050901191518391D091D111E
:101BA00019390009011C21012408341014190D19D8
:101BB000151839103D19241D11190D193D01000189
:101BC00025002408001D0D1D0918151D1100150DF7
:101BD000110C11351111010001250024080019050F
:101BE000190410251D0019151D10191500090115DE
:101BF0002C1D01152C190D1535083410101D011060
:101C0000051910192D1805010100090101240834D6
:101C1000101019391905150809011D0D01000901D8
:101C2000012408341018193509011135182501014E
:101C30000009011D01152C1909152C190D15350860
:101C40003410101D0110111910192D1831192D0003
:101C500009011D0101240834101019391905112436
:101C600009011D0D010009011D010124083410188E
:101C70001935090111151825010100090115351C37
:101C8000011D0101240C381811090109011D191D3C
:101C90001D10111D001D11192509011D010009014B
:101CA0001D0D19101911002408001D011D001D1122
:101CB000192509011D0D1D101910191100152C15DC
:101CC0003500240C38183D090111351C0910111973
:101CD00010192D0000150D113111391515110C11A8
:101CE000351111010009010125002408001D1118FA
:101CF00021190C1D0D19151825192100090101259F
:101D0000002408001D111821190C1D0D19151805A6
:101D100009011939192100012500240800193D196C
:101D20001819351D091D181D0D1939000D2D18091B
:101D3000180C0900090108380834100C1909191584
:101D40001C1519251915183D19051D0D0009011936
:101D50003909000900090009000838083414081975
:101D6000150901193519390901090009000100187F
:101D7000391D101D11083800240800193519391DA6
:101D8000101D110011151105110C15091511150D56
:101D9000001939193D150C14201119002408001DD3
:101DA0000D19391D1019351905193C1D01010100C6
:101DB0001939193D150414200925002408001D0DAA
:101DC00019151815192519311C151D15010019397A
:101DD000193D113C002408001D01191509011D09B8
:101DE000193909011D111D11001939193D110C0076
:101DF000240800193D09011D091939193C1D09194B
:101E0000250101001939193D11201008192D190556
:101E100009250834101019150901191518050901AB
:101E20001905190D1D0918391D09010100110915A0
:101E30001110101915092500240800193119151859
:101E40002119301D11182119051915191419151901
:101E500011001939193D1508002408001D11191524
:101E60001821190C1D091D11182501010019391916
:101E70003D151400240800190509011D0919391917
:101E800030191500000000000000000000000000F4
:101E90000000000000000000000000000000000042
:101EA0000000000000000000000000000000000032
:101EB0000000000000000000000000000000000022
:101EC0000000000000000000000000000000000012
:101ED0000000000000000000000000000000000002
:101EE00000000000000000000000000000000000F2
:101EF00000000000000000000000000000000000E2
:101F000000000000000000000000000000000000D1
:101F100000000000000000000000000000000000C1
:101F200000000000000000000000000000000000B1
:101F300000000000000000000000000000000000A1
:101F40000000000000000000000000000000000091
:101F50000000000000000000000000000000000081
:101F60000000000000000000000000000000000071
:101F70000000000000000000000000000000000061
:101F80000000000000000000000000000000000051
:101F90000000000000000000000000000000000041
:101FA0000000000000000000000000000000000031
:101FB0000000000000000000000000000000000021
:101FC0000000000000000000000000000000000011
:101FD0000000000000000000000000000000000001
:101FE00000000000000000000000000000000000F1
:101FF00000000000000000000000000000000000E1
:00000001FF
