:1000000000000000000000000000000000000000F0
:1000100000000000000000000000000000000000E0
:100020000000000000000000000000000033122A61
:1000300027041F0A0C221513331021063B0F23003F
:10004000212B003F3807200000111F000000000096
:1000500000000000000000000000000000000000A0
:100060000000000000000000000000000000000090
:100070000000000000000000000000000000000080
:10008000292322002621052221080A26210C201AD4
:10009000201119081421033E003F0F3E3D3C202152
:1000A000053B053A020B05310539320602190235C6
:1000B0000538320B09370128363505340531321C35
:1000C000020B1819021C18190933320128160538B9
:1000D00032213105301B322F1B322605313F000003
:1000E0000000000000000000000000000000000010
:1000F0002D35201D001503163F091604103F023F41
:100100003E003F0F0531003E053D23053C182813F6
:100110003B053A0B252539280B2023080623240B01
:100120000B000B0538370536053800000005382B65
:1001300005353F000B3400033328323128302F2897
:10014000392E072D282C2B1B1B150538001B0628C4
:100150000A1B15053805342000150538001B06203C
:100160000015200B0B1500000000003A20273B264D
:100170001F2817181F0026183605223F00003E3F93
:10018000000F000E00010D003F0D000F0B0E0000D0
:100190000533281D0535053E053620250828230B87
:1001A0002424282315053E05362528333D08353CF3
:1001B00020353B2015013E053E05362528053A0829
:1001C000353D2035392115053732353805373204AC
:1001D0003605300936010530320C0531321A310549
:1001E00036350A090A0128150534053123000000B7
:1001F00000000000003800230D30343F2120323D44
:1002000020080012053A1022143F10133F05130571
:100210003E053D0530053B1824053C100520110521
:10022000310F053D05310535053328153C20000407
:10023000053E053D3020080012053B053A053925ED
:10024000053E053C053428153C20003D0533283982
:100250000535053805373705363105380535053993
:1002600005363436000000000000000000000000E9
:1002700000000000151A220900201C0E143000385E
:10028000250115250015250315253F11023E010204
:100290001525261500052D0536052A053005393C9E
:1002A000051431001723053D173001232F00233299
:1002B00003233506233802233E04230105230504C6
:1002C000233B0011043C070015003E12283615059B
:1002D0000205091017173E01151705020509171029
:1002E0003E011539390519050F2139281532310517
:1002F0003B390530053D052F3F0000000100003F60
:10030000053A1000053F053612053E053D053B1830
:100310002027053C053E17053E053C1820270915FA
:10032000011A053A100005361219190418011905A9
:100330003D1919053B183F053C2A19283F053D3258
:1003400028192F0539250A05380017101120130424
:1003500015120534281C0535053A053617053E05E6
:100360003B1815053C1C00000000000000000000C8
:100370000000000000000000000000000036110E28
:100380000539253A101120130415203B121B281B98
:10039000053A1B281B0539253B0536273A3B213AF0
:1003A000053F053D3B3A202E053E05312027053B04
:1003B0001835053C202720150108000005370514D5
:1003C000170810091110280D053E053117270117D0
:1003D00020150111003D083C093B0A3A271215057A
:1003E0001408282F2110202F092111203010150961
:1003F0002721001500000000000038100800303FE1
:10040000053828160535053F25280010053E10142F
:10041000081010150118053D08090A271815053F91
:10042000252800100536053E102C011E053D090843
:100430002836272E01270814101409141114150545
:100440003D08280E100911053D0A3C053E10090A19
:10045000270115053D08281F1009110A053E21092D
:100460000A2715150537020411001012053D06056F
:100470003B053A3900000000002033021E141F0023
:1004800005370302201A12053705020E0537053F0E
:100490001A0300070B20040F051F031102050104B6
:1004A00000053828350535053E05360504250011BB
:1004B0000A0611020E05040E05370504213C070249
:1004C0000B020B1500010302040520001505392558
:1004D00021251B281905390536213D001F013E271E
:1004E000250027172720293223322F172F0000003D
:1004F0000000000000000000000000000000003FBD
:100500003F08200900082815213609033E10201550
:1005100004020F0F14000533282A0535053E053760
:100520003D053C1832053B3A0039053410250500DD
:100530001025013C021C05001815322B0531001551
:10054000021605001815323005310015053905363B
:10055000320925171705300538103F1715013E09D8
:100560003701201501050000000000000000000018
:100570000000000000000020150E050422210010DC
:100580000533282205350539253F20202527053448
:10059000282B053505390536273E0809250801159C
:1005A000013E27052B27273F202315321B27053D1A
:1005B0003220273E080908012F3219090A09291893
:1005C000273C08092B082B200827040102142902C4
:1005D00000183B002B0815090A090129202B203E91
:1005E000053A3E000000000000000000000000008E
:1005F000000000000000000000003F043F0221381E
:100600003220090A09010214290200183F2918277B
:100610003E08092B2108202F082B01202F2713012A
:100620002B0815090A090129202B2006053D060182
:100630000531322E090A01052F20053C053B093AF8
:100640000108292B393805372B360A0500322931A4
:10065000053B093501021D1834072909332B0132E6
:1006600038053709332B01310A05000D0000000061
:100670000000091D1D10003910101E0C1F3F3F0403
:100680000537123F2705153E2003270505153E288F
:100690000C3D25193D101111253D2001251305158F
:1006A00014133C0211143C0117051525253E280C96
:1006B00019131419133B203E17053E10001717108D
:1006C00017253B280C250411051525171721191985
:1006D000053A030000003922191D001E15012018DB
:1006E000221815052C3F000000000000000000004B
:1006F000000000000000000000383A003F00003E0B
:100700003F3707290B053E3D370829053909253CA8
:10071000253B0A09012A0534283305350539092501
:100720000A250901202A05342833053505392521F4
:100730002A05360214290200180429053A090A0973
:10074000012A33150117322817052F3F392D0729A4
:1007500017053E382D08290539053609253B253C66
:1007600001290537090A0A0901021429020018049F
:10077000210000000000002B100900101E001F00C7
:100780002A273F0819090A01052E053E27053D05C0
:100790003C052D09080117171919170530272705DA
:1007A00020130531272A2005192F002A3F0827206A
:1007B00034193B053A272A282605392521342804EF
:1007C000340025341B392000053925212720001B42
:1007D0003820000539250908251919012727052082
:1007E000130538200032053925211920321B20003D
:1007F00034150131000000001112003A3C233F3F44
:1008000005392513053F053925140536320514052C
:1008100030053E103F3214090A01021413093D014C
:10082000080200183C021414093D01080210183C8B
:10083000093B083D08203B01201A053A1A013229DC
:100840003100000000000000000000000000000077
:100850000000000000000000000000000000000098
:100860000000000000000000000000000000000088
:10087000000000000000000000003F1F041E151CC7
:100880000000000000000000000000000000000068
:100890000000000000000000000000000000000058
:1008A0000000000000000000000000000000000048
:1008B0000000000000000000000000000000000038
:100C80003F082628092817262824080808080206ED
:100C9000110808020A01180803012815052C040090
:100CA000001F05001F1F08082815052C2708090824
:100CB000012815052C2E252502053C253E3D3C2509
:100CC0002825003B100828023A0D00282810053F6F
:100CD0001D392538282506061B1B08251B05053947
:100CE0002815150C25261405122D051231000000BB
:100CF00000000000000000003C020A3617203F3FC1
:100D00000011053F10052E053E2D080A053D053C46
:100D1000251015050E1013111515050E10141116BA
:100D200015051A05343B2035051314101611050658
:100D30001018150111141316150015001015113A8D
:100D40000810390411150011311520151321100058
:100D500015001411101401101611111601111500AF
:100D60000000000000000000000000000000000083
:100D700000000000000000000000081304023C0A0C
:100D80000018053328150517100006021805380548
:100D900017103506181815103F001D3E153D0010A0
:100DA0003C15080908282D2118282D082408310190
:100DB000310000252805333B080B3A200B2504257C
:100DC000250404251B3B2528053837002828001555
:100DD00000252805333B0828392028252625060428
:100DE000381B3B2528053815002828001500000071
:100DF0000000000000000000383937101B26013FBA
:100E00000002040800020C0411053900283F0815EF
:100E10002602041115053E053D28171B1B052C0550
:100E2000311B3C282A3B282A0015101505331E05C6
:100E3000202C15003A390038390037360035390092
:100E400034393339003205361E1F00212817211F7F
:100E500008171F0531201D3036201E08211E2F05C2
:100E6000360015000000000000000000000000082F
:100E70000A390D302E2F24073F172020273F363BFD
:100E80002F3F0B2E1D1C2F052C053E28091B1D1C5A
:100E90001F1B0608233D281D2E3C002B1B052C1B69
:100EA0000B2E093B20350B3A052C05312F052C3F25
:100EB000053905350938203E37052C053101362026
:100EC0000B2E28090535052D05352534281733281F
:100ED0001732201831052C05310B3F0B152E280930
:100EE00005350B052C0535202E2E0905300900008F
:100EF000391B2F033B190D153D26120E19213F18E2
:100F000028150600163F20093E3D200E3C170D0017
:100F10003B05241D3A17390D1E00202823211E08E9
:100F20002305311D0D053F001C20301D20251D33DC
:100F30001D00153E22213B3E2600152235370005B7
:100F40002803281538200D1C1D37052C3F36201A84
:100F50001D35052C05311C201C15342020201D15A5
:100F60003320261D1F1532150019151E150000000F
:100F7000000011023C0F34033D201B1E242E2C17B1
:100F80000B3E012E020103070417050B0F033E1F42
:100F9000210004182004182206181E04183E040418
:100FA000042820000002042E29003600063E010617
:100FB0003D283A3C0B283B030430040B0416001A6E
:100FC0002015043B00053104053A020405390005EB
:100FD0002F053805373F000000000000000000002A
:100FE0000000000000000000000000000000000001
:100FF0000000000000000013200A00011822010078
:1010000000270D3F2005263E003E3D3C3B3D3B205A
:101010002011203D213B223A23392438253701363F
:101020000100020000200C01201E25090100000023
:101030002E20320C01202C24203636363E363E3609
:101040000A20003E350A2005033400330D0000005D
:1010500000000F00002100201800140C32310A009B
:101060000000000000000000000000000000000080
:101070000038080101100025242322212A201538D8
:1010800038052105212A2A003F181F2A3E2A2A2A2C
:10109000013D09052A013D082A283C2A3C033B035F
:1010A0003A0001392B39003C38372B00362B3E09EA
:1010B000153A3F002A1C13000F24003615031505AE
:1010C000350521112A341005331832053118302A1C
:1010D0000015052F17052E112F0B00152009372D90
:1010E0002D10112C0000000000000000001E173918
:1010F0001400121D07000D0138003C1202013137A7
:10110000053F1812053E18143D053F1812053E18FC
:10111000143C1115161015003B2C3A03083912081F
:101120003913081402093814020637120914060686
:101130003713093E092C1A0015003B2C38091209F7
:10114000133E3A03120813081237020A1213370A21
:101150000A120802092C3C0015201608033629291A
:101160002136293639201602150000161500000018
:101170000000000000003F001D3F32003917001D35
:1011800000111D18151511003F100D15073E02081E
:101190000804083D081D3C283B1508001500103ABE
:1011A0001815100C04393310381C1C211D1D002883
:1011B0001015000032101B051D3B080032033736A6
:1011C000353D363D013420143308003D3B08003DD9
:1011D0003420323C02091C1C281F0831301B1B1014
:1011E000103A20371B15000000000000000000002E
:1011F000000020203F153E2A17013C20203F152BE0
:101200001010003F1815103E1C1C1500203D3F3EDD
:101210003C3F3B0120133A3F393806370537181554
:10122000363807053518153409332C3D3F323E3129
:101230003F3830093930092F3F2C2F332C313F00F4
:10124000002F3F2C3D2E080A2D202C0606042B20B3
:1012500020001500201520092A292D1E1F332800E3
:101260000000000000000000001E01203B1F3806A7
:101270003F0700003F1F2C0901200A380B12173CC2
:101280002E05091815052C3F3E07051F18152E3D84
:101290002E05091815052C3C3E07051F18152E05AF
:1012A0003B09003A3E070900393E0709001F3E038B
:1012B0001F020A38081E060637083E041E0A0A3EA8
:1012C00005393E06013E021500361E1D3507081879
:1012D0002B0434331028151D0C1E0C30150000355E
:1012E0000708182B04323110201F15350110150086
:1012F00000380800001128300F202100302601207E
:101300002E3F2C3E3F3D3E3C090A0A3D0A020A3B65
:101310003C3A3F393F2C08202E083A3F393F2C1ADF
:10132000093E383F00152E3F2C383F3D3E3C373FAD
:1013300039360A383B02060A09353F2C08062E2E9C
:10134000373F353F2C00093E00150000340A1E1EB1
:101350000A1E3318151E0F000000000000000000D8
:10136000000000000000000000000000000000007D
:101370000000003821063F071208090F1D00000079
:101380001E053F2121003E1815213D0A1E0A1505A4
:101390003F21003E211815213D0A0A15053C053F55
:1013A0001F20202630152A3B3D0A0A1E2A003A3902
:1013B000002F083E38050018151F002F3115370083
:1013C000000022363F01013E223D353F343F333F8E
:1013D000010000333F11113E3B3F00393222313FC3
:1013E00022110000000000000000000000000000CA
:1013F00000063F12080900000010300700213821C4
:10140000053F2A2A3E3D1E2A3C281802212F053F6F
:101410003B092D153A09391E242F202D15000000F7
:101420002D28361D053F00383E3D06371836070586
:101430003F3B0A053F00383E3D093718360A053F55
:101440003B0B053F212C00000A00000B2C063E0937
:101450000015000000000000000000000000000077
:10146000000000000000000000000000000000007C
:10147000000000000000083600093F3F000138214D
:10148000000000000000000000000000000000005C
:10149000000000000000000000000000000000004C
:1014A000000000000000000000000000000000003C
:1014B000000000000000000000000000000000002C
:10170000001F30100002300000373035320C321A22
:101710002D002B2233002D072D032C3C301E3200D0
:10172000000C2900342100073224250737253037E3
:10173000380D32383000240524002C112C0C263AA8
:10174000261000162D0023000021232A232D3130DE
:101750003336323F0021230023033106330932118F
:1017600000212D34240000210328232B352D3D207A
:10177000003F0D2D2F392032323220342000092C29
:1017800025272C20212C2500132532232026292C27
:101790000017322E272F3225320017323020322FF9
:1017A0002E2400132B3020003F090F20323232202C
:1017B000000328232B352D25322F32000E2F222F08
:1017C00034333221000E2F24292B0025022521300D
:1017D0002F2E342134003F092C25212C10122026D5
:1017E0002E23292F20212000250225212021200021
:1017F0003F102E25203421302134003F082C342482
:10180000203420003F152B2E372E34323020342048
:10181000000E2F25202534000E2F20333400012CFC
:101820002521392025340014212C2526352C0001B2
:1018300003001003000D1100091200131200101311
:101840000013103E0013103E00062F2D21203529D5
:101850003430213429292F20001732342927200041
:1018600020163229392927200020042E25003F1672
:101870003229292334292E203232322C222C232BB8
:1018800030212520000F36323729342030323434CD
:10189000292E2000032F3929272000152E3420005F
:1018A000202D2010323434292E20002D1601300036
:1018B0002D090130001302363130200F0D0D2F2974
:1018C00034322000200325233335200020302D061C
:1018D000022D3320313A363A3900032F3932272886
:1018E0002028292039382D3230331330322514295D
:1018F0002520293A2F3320202C2C3229283420323D
:10190000332536252E000E163A20000B022D2021FD
:1019100034253220000F0B0006010C0009043A2088
:10192000000D022D20000E2F202434253425000E1A
:101930002F203330303234240034082A0D22062B75
:1019400033040F2C0928023319273B1224333A0B96
:10195000283B0E233F330E182D0A1E3110261E3B46
:101960003D3315253C172C0D2F330411300E29045F
:101970002D122D0005180D0905200E0404050F1366
:1019800014200F0D010E13000520212121212D22ED
:1019900022221D202C202323231D2D3E05382D29F6
:1019A00025202129202D2D2F39000510212121212D
:1019B0002D2222221D202C202323231D2D3E0538DD
:1019C0002D292520212E2C20252D32390005121BF2
:1019D000321D0909093E203821292E2032272934B9
:1019E00025000420212121212222222C1B23232314
:1019F000202E2E1D2D3E04252F3334202E2021296C
:101A0000202D2D2F39000410212121212222222CCA
:101A10001B232323202E2E1D2D3E04252F3334205F
:101A20002E20212E2C20252D323900041238383951
:101A3000393909092D2004302F2934292E3225293E
:101A4000332532000D050F1220030D0D0E04000288
:101A50000D212121212222222224242424092D2087
:101A60000D36252D252F3220222F2300030B212177
:101A700021212222222209093E2028252B332D2034
:101A8000252D3239222C232B0017133636362021F0
:101A9000212121222222221B2D2D2D1D093E202510
:101AA0002123282D252F3200060D36363620212100
:101AB00021212222222209093E20292C202D2D2FEE
:101AC0003900030D1B2121212D2222221D092D3E2B
:101AD000032C21322D252F32000212010B0F091485
:101AE000200F0D010E130002102121212109093EB2
:101AF0002025342232212B2F29340002121B2121D0
:101B0000211D09092D20122D2F252032252B3029AA
:101B10002E00020C09092D3E0C29342032252B30D1
:101B2000292E3300100909093E20322F25252030A7
:101B300033342232212B2F293400101207120D20AA
:101B40000F0E120F20030D0D0E040013141B212184
:101B5000211D09092D20132132202D292E2D252F5D
:101B60003220302F27212D00030909093E202F2E76
:101B7000292E2520382535342F2E00130909092D4B
:101B80003E1329272C202933343523292F00141202
:101B900009092D3E143223252F2E202933343523D5
:101BA000292F0005183638380909093E203825350F
:101BB000342021200914202E33323534292E000DF3
:101BC0001209092D3E0D2134252032332500040948
:101BD0000B200F0D010E13000C0209092D3E0C2FD6
:101BE000242020020E202130322021300012043522
:101BF00020303030202323231D09093E20352D209D
:101C0000120D2029332030272500120C350909092F
:101C10003E202F372C2F2420010D24292B001206C3
:101C2000350909093E202F32213412012024332B9B
:101C300000040430303020222222202323231D09D7
:101C4000093E20352D20090520293320222F23008D
:101C5000040C3030300909093E202F372C2F242066
:101C6000040524292B0004063030300909093E20E0
:101C70002F32213409042024332B00100D1B352072
:101C80001B30301D09092D200529342F323225291A
:101C90002520090520213229342F2E2D2100100363
:101CA00033333320242409092D3E032F39202132D8
:101CB00029342F2E333333202F20242400022024D4
:101CC000240909092D20022F341201202F20090593
:101CD00020293320000D0903050C01050F13200FE7
:101CE0000D010E130014172E2E09092D3E13252069
:101CF0003425202F2E2F2C203724340014102E2E84
:101D000009092D3E1325203425202F2E2F2C20307D
:101D100027252C25273400160509092D3E132837C1
:101D2000202932372125202532292F002121202268
:101D30003B20233B24242E2E09093E202F2D292E23
:101D4000202D2C34302C20232D2D2E240012101B5E
:101D50002E1D3B013B023B033B2E2E09093E202555
:101D6000302134232F2D212433012C022C03002178
:101D700021392025382E2E09092D3E032F2D2534FB
:101D800020253800131003090C2008010103051257
:101D900000032F34322C2D20280F0629092D3E1345
:101DA00035302524202532292E2C20353435340099
:101DB000032F34322C2D20280F0E09092D3E122519
:101DC000352D2034322D2E21202F34303400032F96
:101DD00034322C2D09092D3E13353032333334255E
:101DE0002D29212C2F35303500032F34322C2D098D
:101DF000092D3E012232342335322534203025216D
:101E0000342F2E00032F34322C2D20282123333061
:101E1000232509093E20252C34253428202C333451
:101E20002328322134252025342525240012150F9E
:101E3000152028252C342509092D3E04252534207C
:101E4000342520213320232132233432202E3432F2
:101E50002500032F34322C2D09092D3E122539304F
:101E6000203425203532252E202C2E2500032F341A
:101E7000322C2D09092D3E053233252335322534E8
:101E800020292E00000000000000000000000000DB
:101E90000000000000000000000000000000000042
:101EA0000000000000000000000000000000000032
:101EB0000000000000000000000000000000000022
:101EC0000000000000000000000000000000000012
:101ED0000000000000000000000000000000000002
:101EE00000000000000000000000000000000000F2
:101EF00000000000000000000000000000000000E2
:101F000000000000000000000000000000000000D1
:101F100000000000000000000000000000000000C1
:101F200000000000000000000000000000000000B1
:101F300000000000000000000000000000000000A1
:101F40000000000000000000000000000000000091
:101F50000000000000000000000000000000000081
:101F60000000000000000000000000000000000071
:101F70000000000000000000000000000000000061
:101F80000000000000000000000000000000000051
:101F90000000000000000000000000000000000041
:101FA0000000000000000000000000000000000031
:101FB0000000000000000000000000000000000021
:101FC0000000000000000000000000000000000011
:101FD0000000000000000000000000000000000001
:101FE00000000000000000000000000000000000F1
:101FF00000000000000000000000000000000000E1
:00000001FF
